:020000020000FC
:1000000000C0579A569A559A3BD0209A289A2AD0DF
:10001000289810D0C83242F0A894C43642F0A89470
:100020005F9A5E985D98F0CF5D9A5E9AEDCF5E9A8A
:100030005D98EACF209840E04093800045EC4093E3
:10004000810056B355FFFDCF0091860056BB45E8B1
:100050004093810056B355FFFDCFC0918600C01B71
:1000600056BB0895442746BD44E147BD4AE045BD1F
:1000700045B341FFFDCF442745BD42E045BB089550
:100080005FEF6FEF72E37A95F1F76A95D9F75A95BA
:04009000C1F7089517
:00000001FF
