:020000020000FC
:1000000000C0579A569A559A549A47D0209A289ADF
:1000100036D028981CD0CF372AF05F985E985D982C
:100020005C98F3CFCE3122F0CC333AF0CF3752F098
:100030005D9A5E9A5F9A5C9AE8CF5E9A5F9A5D9845
:100040005C98E3CF5F9A5E985D985C98DECF2098CD
:1000500040E04093800045EC4093810056B355FF4B
:10006000FDCF0091860056BB45E84093810056B312
:1000700055FFFDCFC0918600C01B56BB0895442795
:1000800046BD44E147BD4AE045BD45B341FFFDCF14
:10009000442745BD42E045BB089548EF40938500A5
:1000A0004FE54093840040E04093800045E040935A
:1000B000810046B340FFFDCF41E046BB40E04093A6
:0400C000810008951E
:00000001FF
