:020000020000FC
:1000000000C0579A569A559A549A48D0209A289ADE
:1000100037D028981DD0C7FF05D05F985E985D98AF
:100020005C98F3CFCE312AF0CC3342F0C4365AF08C
:1000300008955D9A5E9A5F9A5C9AE7CF5E9A5F9A9E
:100040005D985C98E2CF5F9A5E985D985C98DDCF92
:10005000209840E04093800045EC4093810056B3E7
:1000600055FFFDCF0091860056BB45E840938100C7
:1000700056B355FFFDCFC0918600C01B56BB0895F7
:10008000442746BD44E147BD4AE045BD45B341FF75
:10009000FDCF442745BD42E045BB08955FEF6FEFBC
:1000A00072E37A95F1F76A95D9F75A95C1F70895F1
:00000001FF
