:020000020000FC
:1000000000C0579A569A559A549A45D0209A289AE1
:1000100034D028981AD0CE314AF0CC3362F0C436AE
:100020007AF05F985E985D985C98EFCF5D9A5E9AE3
:100030005F9A5C9AEACF5E9A5F9A5D985C98E5CF8A
:100040005F9A5E985D985C98E0CF209840E040937E
:10005000800045EC4093810056B355FFFDCF0091E1
:10006000860056BB45E84093810056B355FFFDCF4F
:10007000C0918600C01B56BB0895442746BD44E18D
:1000800047BD4AE045BD45B341FFFDCF442745BDCF
:1000900042E045BB08955FEF6FEF72E37A95F1F7A9
:0A00A0006A95D9F75A95C1F7089543
:00000001FF
