:020000020000FC
:1000000000C0579A569A559A549A3CD0209A289AEA
:100010002BD0289811D0C8323AF0C4364AF05F9AF3
:100020005E985D985C98F1CF5D9A5E9A5C9AEDCF90
:100030005E9A5D985C98E9CF209840E040938000FC
:1000400045EC4093810056B355FFFDCF00918600EB
:1000500056BB45E84093810056B355FFFDCFC09194
:100060008600C01B56BB0895442746BD44E147BDEA
:100070004AE045BD45B341FFFDCF442745BD42E0C1
:1000800045BB08955FEF6FEF72E37A95F1F76A95DC
:08009000D9F75A95C1F7089554
:00000001FF
