:020000020000FC
:1000000000C0579A569A559A3AD0209A289A29D0E1
:1000100028980FD0C83242F0A894C4363AF0A89479
:100020005F9A5E985D98F0CF5D9AEECF5E9A5D988C
:10003000EBCF209840E04093800045EC4093810056
:1000400056B355FFFDCF0091860056BB45E840935F
:10005000810056B355FFFDCFC0918600C01B56BB33
:100060000895442746BD44E147BD4AE045BD45B338
:1000700041FFFDCF442745BD42E045BB08955FEFFA
:100080006FEF72E37A95F1F76A95D9F75A95C1F750
:020090000895D1
:00000001FF
